:100C8A00494E4600444956204552520031323341BA
:100C9A0034353642373839432A30234400000011AC
:100CAA0000230034004600570069007A008B009C3C
:100CBA0000AD00BE00CF00E000F1010201130124E3
:100CCA00013501450156016601760186019601A6A4
:100CDA0001B601C601D501E501F40203021202219F
:100CEA00022F023E024C025A0268027502830290E7
:100CFA00029D02AA02B702C302CF02DB02E702F296
:100D0A0002FE03090314031F03290333033D0347A8
:100D1A00035003590362036B0373037B0383038A40
:100D2A0003920399039F03A603AC03B203B703BC60
:100D3A0003C103C603CA03CE03D203D503D903DB17
:100D4A0003DE03E103E303E403E603E703E703E85F
:100D5A0003E873696E2800636F73280074616E2854
:060D6A0000636F74280015
:10118D00E4FDFCC3ED9FEC9E5015E4FBFA0BBB0098
:0F119D00010ABA04F8BBFBF50DBD00010C80E49C
:0111AC002220
:0C11F400D2B77F017E0012118DC2B7221D
:09120C008F90C2B5C2B60211F4C4
:0B11E000AE2DAF2E120ACCEF2430FF22
:0911EB008F90D2B5C2B60211F4D6
:10116B007F147E0012118D7F3812120C7F0C12121D
:10117B000C7F0612120C7F0112120C7F027E0002F2
:02118B00118DC4
:101146008B2F8A308931AB2FAA30A931120AA160C0
:10115600130531E5317002053014F9120AA1FF12A8
:0511660011EB80E22204
:040D70008E2D8F2E07
:100D7400E4F535F536E52E452D70057F300211EB8F
:100D8400C3E52D6480948050107F2D1211EBC3E4D1
:100D9400952EF52EE4952DF52DD3E52E9400E52D15
:100DA40064809480402EAE2DAF2E7C007D0A120A02
:100DB400CCED2430FF0536E5367002053514242FBA
:100DC400F8A607AE2DAF2E7C007D0A120ACC8E2D1C
:100DD4008F2E80C5E53624FFF536E53534FFF5352D
:100DE400C3E535648094804014742F2536F8E6FFFB
:0D0DF4001211EBE536153670E7153580E37A
:010E010022CE
:100F1B008E2D8F2EE52E640F7004E52D6427600A4D
:100F2B00E52EB4F10EE52DB4D8097BFF7A0C798A46
:100F3B00021146C3E52D6480948050107F2D121151
:100F4B00EBC3E4952EF52EE4952DF52D7C037DE872
:100F5B001211E07F2E1211EBAE2DAF2E7C037DE82C
:100F6B00120ACC8C2D8D2E7C007D641211E0AE2DDF
:100F7B00AF2E7C007D0A120ACC7C007D0A120ACCB3
:100F8B00ED2430FF1211EBAE2DAF2E7C007D0A123B
:0A0F9B000ACCED2430FF1211EB2206
:100E8F00E4F943800FA8017401088002C333D8FC32
:100E9F00F45280E58054F0FF64F060647F147E00AC
:100EAF0012118DE58054F0FF64F06054EF20E40ED2
:100EBF00E925E025E02496F582E4340C8034EF2018
:100ECF00E50EE925E025E02497F582E4340C802235
:100EDF00EF20E60EE925E025E02498F582E4340CB6
:100EEF008010EF20E712E925E025E02499F582E450
:100EFF00340CF583E493FF22E58054F0FFBFF0F844
:0C0F0F0009E964046003020E91020E8FD9
:1011AD007C017D68120ACCAE04AF05C3EE64809459
:0C11BD0080500874682FFF74013EFE2271
:100FA5001211ADD3EF945AEE6480948050028013F1
:100FB500D3EF94B4EE648094805021C374B49FFF42
:100FC500E49EFEEF25E0FFEE33FE74A62FF5827456
:100FD5000C3EF583E493FE740193FF22D3EF940E48
:100FE500EE648094815010EF25E0FFEE33FE743EF1
:100FF5002FF582740B8017C374689FFF74019EFEE2
:10100500EF25E0FFEE33FE74A62FF582740C3EF556
:1010150083E493FE740193FFC3E49FFFE49EFE22E5
:1011C900C374C29FFF74019EFE7C017D68120ACC24
:0711D900AE04AF05020FA5F3
:081025008F328E318D308C2FCB
:10102D00AF36AE35AD34AC33EC4D4E4F7002803A29
:10103D00E47FE87E03FDFCAB32AA31A930A82F1264
:10104D000B02AB36AA35A934A83312109C8F3A8EF9
:10105D00398D388C37E47F0F7E27FDFCAB3AAA39EA
:10106D00A938A837D3120B5140057E277F0F227F59
:10107D00F17ED87DFF7CFFAB3AAA39A938A837C3DA
:0E108D00120B5150057ED87FF122AE39AF3ADA
:01109B002232
:1010E0008E2D8F2E120FA5EE3395E0FDFCC004C0AF
:1010F00005C006C007AF2EAE2D1211C9EE3395E024
:101100008F368E35F534F533D007D006D005D004B0
:03111000021025A5
:101113008E2D8F2E1211C9EE3395E0FDFCC004C055
:1011230005C006C007AF2EAE2D120FA5EE3395E016
:101133008F368E35F534F533D007D006D005D0047D
:0311430002102572
:080E02008E2D8F2E8C2F8D30F8
:100E0A00E4753401F533F532F531C3E52F64809486
:100E1A00805004E4FEFF22900000C3E5829530E58D
:100E2A002F6480F8E5836480985055AB34AA33A9BF
:100E3A0032A831AE2DAF2EEE3395E0FDFC120B0237
:100E4A008F348E338D328C31E47FFF7E7FFDFCAB95
:100E5A0034AA33A932A831D3120B5140057E7F7FC1
:100E6A00FF227F007E807DFF7CFFAB34AA33A9324C
:100E7A00A831C3120B5150057E807F0022A3809AAD
:040E8A00AE33AF34A0
:010E8E002241
:10080000E4F521F522F523F524F525F526F527F560
:0808100028F529C20012116B4A
:10081800120E8F8F2AE52A64416005E52AB4440543
:10082800852A2880EBE5286441702BE52A24CE60D0
:100838000F1460111460132403705175272B800D59
:1008480075272D800875272F800375272AAF271253
:0C08580011EBD2008036E5286444705B90
:10086400E52A24CE601214601714601C240370203F
:10087400E4F52B752953801E752B017529438016C9
:10088400752B02752954800E752B0375294F80062C
:10089400E4F5280208187F0112120CE52B75F00507
:1008A400A4245CF9740D35F0FA7BFF121146E4F5CB
:0808B40021F522C20075285451
:1008BC00020818E52AC394304052E52AD3943950E3
:1008CC004B200023AE21AF227C007D0A120ABAAD68
:1008DC002AED3395E0FCED24D0FDEC34FFCD2FF563
:1008EC0022ED3EF5218021AE23AF247C007D0A123F
:1008FC000ABAAD2AED3395E0FCED24D0FDEC34FFC3
:10090C00CD2FF524ED3EF523AF2A800CE52AB42A31
:10091C000D75275ED2007F5E1211EB020818E52AD6
:0D092C0064236003020A2CE5286454705017
:10093900E52924BD601024EF601504701BAF22AEB9
:1009490021120FA58019AF22AE211211C98010AF53
:1009590022AE211210E08007AF22AE211211138EB0
:100969002B8F2C7F291211EB7FC012120CAF2CAEEA
:100979002B120F1BE4F521F522F528F52902081899
:10098900E52724D6603024FD601D24FE603524D17E
:10099900606624336003020818E5222524F526E55C
:1009A900213523F5258060C3E5229524F526E52127
:1009B9009523F5258051AC23AD24AE21AF22120A2F
:1009C900BA8040E524452370227FC012120C7BFFB8
:1009D9007A0C798E121146E4F525F526F523F524CE
:1009E900F521F522F527C200020818AC23AD24AE83
:1009F90021AF22120ACC800BAD24AC23AF22AE2149
:100A0900120E028E258F267FC012120CAF26AE253C
:100A1900120D70852521852622E4F523F524C200CF
:100A2900020818E52A64427043200010AE21AF2263
:100A3900FC7D0A120ACC8E218F22800FAE23AF24AF
:100A49007C007D0A120ACC8E238F247F0112120C9E
:100A5900AF22AE21120D70200003020818AF271231
:100A690011EBAF24AE23120D70020818E52A644376
:100A79006003020818F525F526F523F524F521F577
:100A890022F527C200F528F5297F0112120C7F02F1
:050A99007E0012118D2A
:030A9E0002081833
:03000000021200E9
:0C120000787FE4F6D8FD75813A02080002
:100AA100BB010689828A83E0225002E722BBFE0253
:090AB100E32289828A83E4932286
:100ABA00EF8DF0A4A8F0CF8CF0A428CE8DF0A42E50
:020ACA00FE220A
:100ACC00C2D5EC30E709B2D5E4C39DFDE49CFCEE45
:100ADC0030E715B2D5E4C39FFFE49EFE120B67C34B
:100AEC00E49DFDE49CFC8003120B6730D507C3E446
:060AFC009FFFE49EFE22B4
:100B0200E88FF0A4CC8BF0A42CFCE98EF0A42CFC92
:100B12008AF0EDA42CFCEA8EF0A4CDA8F08BF0A410
:100B22002DCC3825F0FDE98FF0A42CCD35F0FCEB6F
:100B32008EF0A4FEA9F0EB8FF0A4CFC5F02ECD3934
:0F0B4200FEE43CFCEAA42DCE35F0FDE43CFC22A1
:10109C00C2D5E830E70FB2D5E4C39BFBE49AFAE47F
:1010AC0099F9E498F8EC30E717B2D51210D2120B7C
:1010BC00F8E4C39BFBE49AFAE499F9E498F880030A
:1010CC00120BF830D50DE4C39FFFE49EFEE49DFDAA
:0410DC00E49CFC2272
:100B5100EB9FF5F0EA9E42F0E99D42F0EC6480C81B
:060B610064809845F022BB
:100B6700BC000BBE0029EF8DF084FFADF022E4CC72
:100B7700F875F008EF2FFFEE33FEEC33FCEE9DEC3B
:100B8700984005FCEE9DFE0FD5F0E9E4CEFD22ED81
:100B9700F8F5F0EE8420D21CFEADF075F008EF2FCB
:100BA700FFED33FD4007985006D5F0F222C398FDBC
:050BB7000FD5F0EA2259
:100BBC0075F008758200EF2FFFEE33FECD33CDCCF0
:100BCC0033CCC58233C5829BED9AEC99E582984073
:100BDC000CF582EE9BFEED9AFDEC99FC0FD5F0D650
:100BEC00E4CEFBE4CDFAE4CCF9A88222B800C1B97A
:100BFC000059BA002DEC8BF084CFCECDFCE5F0CBB8
:100C0C00F97818EF2FFFEE33FEED33FDEC33FCEBF0
:100C1C0033FB10D703994004EB99FB0FD8E5E4F9AB
:100C2C00FA227818EF2FFFEE33FEED33FDEC33FC98
:100C3C00C933C910D7059BE99A4007EC9BFCE99A8C
:100C4C00F90FD8E0E4C9FAE4CCFB2275F010EF2FD1
:100C5C00FFEE33FEED33FDCC33CCC833C810D707D1
:100C6C009BEC9AE899400AED9BFDEC9AFCE899F80C
:0E0C7C000FD5F0DAE4CDFBE4CCFAE4C8F9229F
:00000001FF
